:020000040800F2
:10000000904E00207102000897240008771C000819
:100010007D2400084308000889270008000000002C
:10002000000000000000000000000000B101000816
:1000300051080008000000000D020008A524000877
:100040008B0200088B0200088B0200088B0200085C
:100050008B0200088B0200088B0200088B0200084C
:100060008B0200088B0200088B0200088B0200083C
:100070008B0200088B0200088B0200088B0200082C
:100080008B0200088B0200088B02000800000000B1
:100090000000000000000000000000008B020008CB
:1000A0008B0200088B020008612500088B02000803
:1000B0008B0200088B0200088B0200088B020008EC
:1000C0008B0200088B0200088B0200088B020008DC
:1000D0008B0200088B0200088B0200080000000061
:1000E0008B0200088B0200088B0200080000000051
:1000F0000000000000000000000000008B0200086B
:10010000000000008B0200088B0200088B02000830
:1001100000000000000000000000000000000000DF
:100120008B0200088B0200088B0200088B0200087B
:100130008B0200080000000000000000000000002A
:100140000000000000000000000000008B0200081A
:100150008B0200088B0200088B0200088B0200084B
:100160008B0200088B020008000000000000000065
:10017000000000000000000000000000000000007F
:10018000000000008B0200080000000000000000DA
:100190008B0200088B020008DFF810D000F0D0FAC4
:1001A00000480047B1300008AFF30080904E0020B7
:1001B0002C4B19680868B0E8F04F80F30988BFF34A
:1001C0006F8F4FF0000080F311887047000000002F
:1001D00008480068006880F308884FF0000080F34A
:1001E000148862B661B6BFF34F8FBFF36F8F00DF25
:1001F00000BF00BF08ED00E0DFF80C00016841F42B
:1002000070010160704700BF88ED00E0EFF30980E6
:10021000BFF36F8F134B1A681EF0100F08BF20ED4D
:10022000108A20E9F04F106009B44FF0500080F3BD
:100230001188BFF34F8FBFF36F8F03F0EBFE4FF0CA
:10024000000080F3118809BC19680868B0E8F04F15
:100250001EF0100F08BFB0EC108A80F30988BFF3BE
:100260006F8F704730000020EFF30580704700006B
:100270000648804706480047FEE7FEE7FEE7FEE740
:10028000FEE7FEE7FEE7FEE7FEE7FEE75125000892
:10029000990100082DE9F05F0546002092469B4633
:1002A00088460646814640241BE02846414647468C
:1002B000224600F07CF853465A46C01A914110D3AA
:1002C00011461846224600F063F82D1A67EB010824
:1002D0004F4622460120002100F05AF817EB000992
:1002E0004E41201EA4F10104DFDC484631462A4677
:1002F0004346BDE8F09F40EA01039B0703D009E0B5
:1003000008C9121F08C0042AFAD203E011F8013B01
:1003100000F8013B521EF9D27047D2B201E000F85A
:10032000012B491EFBD270470022F6E710B5134699
:100330000A4604461946FFF7F0FF204610BD00F0BC
:10034000004230F000400AD0C10D01F56071C0F3E9
:10035000160042EA0151C2084007114370470020CD
:100360000146704730B50B4601460020202201248B
:1003700009E021FA02F59D4205D303FA02F5491B73
:1003800004FA02F52844151EA2F10102F1DC30BD89
:10039000202A04DB203A00FA02F100207047914045
:1003A000C2F1200320FA03F3194390407047202A3A
:1003B00004DB203A21FA02F00021704721FA02F30F
:1003C000D040C2F1200291400843194670472DE900
:1003D000FE4F804681EA0300C00F0C46009021F0DA
:1003E000004123F00045B8EB0200A94105D2404688
:1003F000214690461C460B46024623F0004010431F
:1004000047D0270DC7F30A00C3F30A510290401AE0
:10041000019040286BDAC3F3130040F4801B00986E
:10042000924620B10023D2EB030A63EB0B0B019839
:100430005946C0F140025046FFF7AAFF06460D4656
:1004400050465946019A00F08DF910EB08006141C1
:10045000002487EA115284EAE7731A4340D0009AD5
:1004600062B3019A012A4FEA075215DC001B61EBC7
:1004700002014FF0004202EA0752CDE90042001C9F
:1004800041F5801132462B4600F08DF903B0BDE8EE
:10049000F08F40462146F9E7001B61EB0201001C8A
:1004A00041F5801300185B412018A2F5001747EBB7
:1004B000030140EAD570B6196D4111E06D084FEAAD
:1004C000360645EAC0754FEA0752001B61EB020190
:1004D000001C41F5801149084FEA300000195141D4
:1004E00032462B4603B0BDE8F04F00F04DB90098FE
:1004F000012240000023D0EB020263EBE07300987E
:1005000021464FEAE074B8EB000061EB0401E9E733
:1005100083F000435BE781F0004158E72DE9FE4F8F
:1005200081EA030404F0004421F0004100944FF0FC
:10053000000B23F0004350EA01045ED052EA0304AA
:100540005BD0C3F30A54C1F30A552C44A4F2F3342C
:100550000194A0FB0254C1F3130141F48011C3F3D1
:10056000130343F4801301FB024400FB034E840A8F
:10057000970A44EA815447EA8357A4FB0768029527
:100580008D0A05FB07854FEA932C04FB0C542705C5
:10059000029D4FEA065847EA1637B5EB08056EEBA1
:1005A000070C870E920E47EA811742EA8312A7FBD7
:1005B0000201B6EB0B0164EB00042B0D43EA0C3394
:1005C0005E1844EB1C50DA465146E7FB0201C5F3C6
:1005D00013044FEA0B3343EA14534FEA0432019CED
:1005E00043EA0603A4F10C040294009CCDE900B494
:1005F00000F0D9F803B0BDE8F08F00200146F9E71C
:100600002DE9F04D81EA030404F0004B21F0004590
:1006100014464FF0000A23F0004150EA050220D0B2
:1006200054EA01021DD0C5F30A570246C5F313036D
:10063000C1F31300C1F30A5640F4801543F480134C
:10064000A7EB0608101BD64608F2FD3873EB050031
:1006500002D308F1010801E092185B41B8F1000FE4
:1006600003DA00200146BDE8F08D00204FF4801130
:10067000064684460EE0171B73EB050705D3121BD5
:1006800063EB050306434CEA010C49084FEA3000CE
:1006900092185B4150EA0107EDD152EA030012D0F3
:1006A00082EA040083EA0501084305D0101BAB4130
:1006B00006D20122002306E000224FF0004302E0B0
:1006C0006FF0010253101AEB06004CEB085110EBCF
:1006D0000A0041EB0B01BDE8F04D00F055B8C1F345
:1006E0000A52C1F3130140F2FF3341F480119A42E0
:1006F00002DA00200146704740F233439A42A2F2E8
:10070000334202DC5242FFF752BEFFF741BE000007
:1007100030B5041E71F1000404DB4FF00044404288
:1007200064EB0101141E73F1000405DB1C464FF05D
:100730000043524263EB0403994208BF904230BD2C
:10074000064C074D06E0E06840F0010394E807001E
:1007500098471034AC42F6D3FFF722FD2C4E000828
:100760004C4E0008202A06DBCB17203A41FA02F053
:1007700043EAE07306E041FA02F3D040C2F12002FE
:10078000914008431946704710B5141E73F10004D8
:1007900008DA401C41F1000192185B411A4301D173
:1007A00020F0010010BD2DE9F04D92469B4611B19D
:1007B000B1FA81F202E0B0FA80F220329046FFF7FF
:1007C000E7FD04460F4640EA0A0041EA0B015346A2
:1007D0005A46084313D0114653EA010019D0C8F114
:1007E00040025046FFF7E3FD05460E465046594687
:1007F0004246FFF7CDFD084305D0012004E0204626
:100800003946BDE8F08D0020054346EAE0762C43EA
:1008100037430A986305E40AA0EB08000022FD0AAA
:1008200044EA47540A3002D500200146E9E70105B1
:1008300010196941DDE9084500196941BDE8F04D2D
:10084000A2E7FEE701490020086070470000002091
:10085000704772B6FEE700002DE9F04196202DEDBD
:10086000048BB0EE418AF0EE608AB0EE409A01F05F
:1008700006FE07464FF4167001F001FE04464FF4E1
:100880007A7001F0FCFD0646002502F02FFC29EEEF
:10089000090A01461E4808EEA80A82688A1AB2426E
:1008A00008EE080A31D3DFF86CC010EE102A0126DA
:1008B0000023624501DA467002E04278012A07D13E
:1008C00010EE102ADFF850C0624501DD01254370AB
:1008D000027812B1012A04D017E0B5B14160067068
:1008E00013E042688A1A6DB1BA4208D3A24206D810
:1008F000037081600120BDEC048BBDE8F081A24251
:1009000000D94160A24200D903700020F3E7000043
:10091000040000200000C83F0BD723402DE9F84F0A
:10092000DFF8B8A10022012403254FF00F090AF1D6
:10093000040BAAF1040E00BF0B6804FA02F6334060
:10094000B34273D10F7907F00307012F01D0022FB3
:1009500016D187684FEA420805FA08FC27EA0C0717
:10096000D1F80CC00CFA08FC4CEA070CC0F808C01F
:100970004768B7430E79C6F3001696403E4346607B
:100980000E79F643B6070DD0C768560005FA06FC87
:1009900027EA0C07D1F808C00CFA06FC4CEA070C51
:1009A000C0F80CC00E7906F00306022E10D1D6084E
:1009B00000EB8608D8F8206057074FEAD76C09FA91
:1009C0000CF7BE430F6907FA0CF73743C8F82070DD
:1009D00006684FEA420C05FA0CF7BE430F7907F0A0
:1009E000030707FA0CF7374307604E6816F4403FD9
:1009F0006DD03B4E376847F480473760366822F049
:100A0000030706F480460096364E07EB060CDCF82A
:100A1000086897073F0F09FA07F826EA0806DFF883
:100A2000C880404503D14FF000081EE04FE0DFF8DA
:100A3000BC80404502D14FF0010816E0DFF8B080DD
:100A4000404502D14FF002080FE0DFF8A880404592
:100A500002D14FF0030808E0DFF89C80404502D146
:100A60004FF0040801E04FF0070808FA07F848EAD9
:100A70000608CCF80888DAF800605746D1F804C0B8
:100A80009E435FEACC2C00D51E433E60DBF800603D
:100A90005F46D1F804C09E435FEA8C2C00D51E430C
:100AA0003E60DEF800607746D1F804C09E435FEAFE
:100AB0008C3C00D51E433E60084F083F3E68D1F88D
:100AC00004C09E435FEACC3C00D51E433E60521CEE
:100AD000102AFFF431AFBDE8F88F0000083C014058
:100AE000443802400030014000000240000402404F
:100AF00000080240000C0240001002400AB181616F
:100B000070470904FBE70000014880687047000057
:100B10002000002070B5040025D094F83D00002589
:100B200020B984F83C50204600F002FB242084F8D1
:100B30003D002068016821F0010101602068016822
:100B400041F4004101602068016821F40041016026
:100B500000F0A2FC4D4A6168914201D84C4900E086
:100B60004C49884201D2012070BD4B492368B0FB3B
:100B7000F1F15E6826F03F060E435E6063689342C3
:100B800006D94FF4967359434FF47A73B1FBF3F1DE
:100B90002368491C1E6A26F03F06314319626168CA
:100BA000914210D84900401EB0FBF1F2521CC2F332
:100BB0000B02042A01D2042022E0B0FBF1F0401C19
:100BC000C0F30B001CE0A268F2B301EBC10303EB1E
:100BD0000116431EB3FBF6F35B1C43F480431B0575
:100BE00049D092B301EBC10202EB0111401EB0FBF0
:100BF000F1F0401CC0F30B0040F4804040F4004092
:100C00002168CA694CF6FF739A431043C861D4E95E
:100C1000071001432068026822F0C00211430160FE
:100C2000D4E9030101432068826848F2FF339A4304
:100C300011438160D4E9050108432168CA6822F0A4
:100C4000FF021043C86001E00EE016E02068016872
:100C500041F0010101602564202084F83D002563F6
:100C600084F83E50002070BD01EB4106431EB3FBEB
:100C7000F6F35B1CB3E70120C2E701EB4101401E24
:100C8000B0FBF1F0401CC0F30B00B7E7A0860100F9
:100C900080841E0000093D0040420F002DE9FF4FF7
:100CA00081B089460446FFF72FFF054694F83D00C2
:100CB0004FF0000820287DD11923012250492046F9
:100CC000009501F0E9F8002874D194F83C0001285F
:100CD00070D0012084F83C0020680168C90703D166
:100CE000016841F0010101602068016821F40061A0
:100CF0000160242084F83D00002626644148E0621B
:100D00004FF0011B20272068016841F480710160C9
:100D10000095002259462046049B01F0BDF850B1D1
:100D200020680068C00502D54FF4007020640320DD
:100D300005B0BDE8F08F216809F0FE000861FFF7FB
:100D4000E3FE2168054648694969C0F34000C1F3E4
:100D500080214FF0A00A0FE0FFF7D6FE411B049858
:100D6000814200D808B984F83DA0216848694969E2
:100D7000C0F34000C1F3802194F83D20A02A02D0A6
:100D800008B90029E8D084F83D7020684169C9435A
:100D9000890716D4016841F4007101602068416937
:100DA00080691923012216492046009501F074F844
:100DB000B8B900E021E084F83D7084F83C60002080
:100DC000B6E7016841F40071016021686FF480604A
:100DD0004861192301220A492046009501F05CF878
:100DE00008B10120A4E7039808F1010880458AD3DF
:100DF00084F83D7084F83C60F3E7022098E7000037
:100E0000020010000000FFFF2DE9FF4F83B09A465B
:100E1000DDE9119793460446DDF84080FFF774FE44
:100E2000054694F83D00202870D11923012271490C
:100E30002046009501F030F80028F5D194F83C00E8
:100E4000012863D0012084F83C0020680168C907AC
:100E500003D1016841F0010101602068016821F4BB
:100E600000610160222084F83D00402084F83E00AB
:100E700000262664C4F82480A4F82A90608D20857A
:100E80005D48E062CDE9007553465A462046049914
:100E900000F00AFF00287CD1208DD0B1012821D09C
:100EA0000228206824D0416980690090208D0328A1
:100EB00069D801282BD0514902283B464FF0000247
:100EC000009559D08846204600F0E6FF002860D102
:100ED0003CE02068416981690091016841F400713A
:100EE000016077E02068016821F480610160F0E72B
:100EF000016821F4806101602068016841F40061AB
:100F00000160206841698069009063E06FE02A46D3
:100F10003946204601F03FF898BB20680069616AB5
:100F200008704EE02068016841F40071016020689B
:100F30000069616A0870606A401C6062218D491E08
:100F40002185618D491E6185216838E0206801682E
:100F500021F48061016020680069616A0870606A3C
:100F6000401C6062208D401E2085608D401E608583
:100F70003B46002241460095204600F08DFF00B917
:100F8000D0E706E0FFE72A463946204601F003F89D
:100F900018B1012007B0BDE8F08F20680069616AD0
:100FA0000870606A401C6062218D491E2185618D38
:100FB000491E618521684A69D24352070AD40969EA
:100FC0000170606A401C6062208D401E2085608D2B
:100FD000401E6085208D00287FF468AF202084F8B3
:100FE0003D0084F83E6084F83C600020D2E7022097
:100FF000D0E70000020010000000FFFF0400010025
:101000002DE9FF4F83B09A46DDE9119793460446D8
:10101000DDF84080FFF778FD054694F83D00202874
:101020007FD11923012240492046009500F034FF6A
:10103000002876D194F83C00012872D0012084F871
:101040003C0020680168C90703D1016841F0010133
:1010500001602068016821F400610160212084F8AA
:101060003D00402084F83E0000262664C4F8248019
:10107000A4F82A90608D20852C48E062CDE90075A7
:1010800053465A462046049900F08CFE70B930E071
:101090002A463946204600F0B1FF58B1206C04289A
:1010A00004D12068016841F400710160012007B09B
:1010B000BDE8F08F606A216800780861606A401CB2
:1010C0006062218D491E89B22185628D521E628522
:1010D00022685369DB435B070BD469B10078106168
:1010E000606A401C6062208D401E2085608D401E1D
:1010F0006085208D0028CBD12A463946204600F055
:10110000A5FE0028CAD154F83D0B016841F40071D6
:101110000160202004F81E09E67766770020C6E704
:10112000FFE70220C3E70000020010000000FFFFFD
:1011300010B586B0044614216846FFF7F5F8144947
:101140002068884221D113480021026842F002023F
:101150000260006800F0020005904FF440700090BB
:101160001220CDE901010320039004200490694678
:101170000948FFF7D3FB07481030016841F400111C
:101180000160006800F40010059006B010BD00007A
:101190000054004030380240000402400248816898
:1011A0000278114481607047200000200B4810B580
:1011B000016841F400710160016841F480610160DF
:1011C000016841F480710160032000F099F80F205C
:1011D00000F006F800F04AF8002010BD003C024084
:1011E00030B505461C4887B00024016841F48021D1
:1011F0000160006806A900F48020009001A800F0BA
:101200002BF900F059F91549154AB0FBF1F11548D1
:10121000491E026040F2E732C0E90324C0E901142C
:10122000846100F043FB040012D10E4800F06CFB17
:1012300004000DD11A2000F035F8102D07D200223D
:1012400029461A2000F03CF80748056000E0012418
:1012500007B0204630BD00004438024040420F0035
:101260000048014060010020240000200C4882B0AA
:10127000016841F480410160006800F48040009002
:101280000748001F016841F080510160006800229A
:1012900000F0805000900F21901E02B000F010B8B6
:1012A00044380240002809DB00F01F020121914070
:1012B0004009800000F1E020C0F8001170470000F4
:1012C000F0B40E4B1B680C46C3F30223C3F10705B1
:1012D000042D00D90425191D072901D2002300E09F
:1012E000DB1E012606FA05F1491E214099409E4069
:1012F000761E16403143F0BC01F050BA0CED00E010
:10130000064900F0070208684FF6FF03184040EA5C
:101310000220034A10430860704700000CED00E013
:101320000000FA052DE9F0470E46050065D0DFF80C
:101330001481D8F80000F7B200F00700B04207D2DD
:1013400088F80070D8F8000000F00700B04254D1CF
:1013500028683D4C810712D5400703D5206840F42A
:10136000E05020602878000703D5206840F46040F2
:1013700020602068A96820F0F000084320602878E9
:10138000C0072DD0304968680839012812D00228DA
:1013900013D0032811D00968890700292DDA2168A4
:1013A00021F0030101432160FFF7AEFB814641F2CA
:1013B000883A0EE009688903EFE709688901ECE7DC
:1013C000FFF7A2FBA0EB0901514502D90320BDE8BC
:1013D000F0872068696800F00C00B0EB810FEFD156
:1013E000D8F80010404601F00701B14207D9077054
:1013F000006800F00700B04201D00120E7E728783C
:10140000400705D52068E96820F4E05008432060D3
:101410002878000706D52068296920F4604040EA52
:10142000C100206000F058F82168084AC1F3031198
:10143000515CC8400649086006480068FFF7D0FEC6
:101440000020C4E7003C024008380240F04D00088C
:101450002C000020240000200F2202600C4A136898
:1014600003F003034360136803F0F0038360136821
:1014700003F4E053C36012684FF4E05303EAD2026E
:1014800002610448006800F007000860704700002F
:1014900008380240003C02400448054900680968D9
:1014A000044AC1F38221515CC84070472C000020DF
:1014B00008380240004E00080448054900680968E1
:1014C000044AC1F34231515CC84070472C000020EF
:1014D00008380240004E0008154810B5006810F0AA
:1014E0000C02144813D01449042A0FD0082A0ED134
:1014F0000F4C241F2268236802F03F025B0207D5CD
:101500002068C0F38810A0FB010106E0084610BD6A
:101510002168C1F38811A1FB00010023FEF7BAFE88
:101520002168C1F30141491C4900B0FBF1F010BD35
:10153000083802400024F40040787D012DE9F84F7E
:1015400004006ED02078DFF84C93C007A9F10405A1
:101550004AD009F104000168C1F38101012908D0D2
:101560000068C0F3810002280AD1D9F800004002C7
:1015700006D52868800337D560680028E1D033E0BD
:101580006068B0F5803F10D0B0F5A02F286810D06B
:1015900020F480302860286820F48020286060686B
:1015A000A8B1FFF7B1FA06460DE0286840F4803094
:1015B000F4E740F480202860F7E700BFFFF7A4FAC3
:1015C000801B642873D828688003F7D50CE0FFF7E8
:1015D0009BFA064605E000BFFFF796FA801B6428D9
:1015E000F0D828688003F7D42078DFF8AC82800731
:1015F0004FF0000A3ED5A748001D016811F00C0FFE
:1016000008D00068C0F3810002280BD1D9F800008F
:10161000400207D42868800716D5E068012800D169
:1016200012E033E1E068B8B10120C8F80000FFF72C
:101630006BFA064605E000BFFFF766FA801B02283A
:10164000C0D828688007F7D52868216920F0F800FD
:1016500040EAC10028600DE0C8F800A0FFF754FA86
:10166000064604E0FFF750FA801B02281FD82868BE
:101670008007F7D42078000722D5864F8748616914
:10168000703771B101210160FFF73EFA064604E0B0
:10169000FFF73AFA801B022809D838688007F7D587
:1016A0000EE0C0F800A0FFF72FFA064605E082E042
:1016B000FFF72AFA801B02287DD838688007F7D404
:1016C0002078400768D5DFF8CCB100270BF13C0B40
:1016D000DBF80000C0000BD4DBF8001041F08051B3
:1016E000CBF80010DBF80000012700F080500090DC
:1016F0006B4E3068C00510D4306840F480703060A4
:10170000FFF702FA009005E0FFF7FEF90099401A92
:10171000022850D83068C005F6D55E4EA0686C36F9
:1017200001280FD00528306810D020F0010030606B
:10173000306820F004003060A068B8B1FFF7E4F929
:1017400000900FE0306840F00100F4E740F0040042
:101750003060F7E7FFF7D8F90099411A41F2883075
:10176000814266D830688007F4D50EE0FFF7CCF9E7
:10177000009007E0FFF7C8F90099411A41F288305C
:10178000814256D830688007F4D42FB1DBF80010BE
:1017900021F08051CBF80010A069C8B33D49091D64
:1017A0000968C1F3810102294AD00228504607D0B6
:1017B000C8F8600000E03CE0FFF7A6F904463BE013
:1017C0004746C8F86000FFF79FF9064605E000BFEE
:1017D000FFF79AF9801B02282BD828688001F7D4DC
:1017E000D4E907010843A16A2E4A490802EB0141E6
:1017F000626A41EA8211084394F82C1040EA0161C0
:10180000C9F8001001203866FFF77EF9044606E0AB
:101810003EE000BFFFF778F9001B022809D82868CE
:101820008001F7D534E000BFFFF76EF9001B0228F6
:1018300002D90320BDE8F88F28688001F4D427E09E
:101840000128F7D0D9F80000E26900F48001914244
:101850001CD1226A00F03F01914217D147F6C071B6
:10186000626A0140B1EB821F10D1A26A4FF0FF33D0
:1018700000F4403103EB5202B1EB024F06D194F871
:101880002C1000F07060B0EB016F01D00120D1E7A7
:101890000020CFE70438024000004742800E474254
:1018A000007000400000FFFF7047704710B5040053
:1018B00003D094F83D0010B107E0012010BD0020D6
:1018C00084F83C00204600F01EF8022084F83D0019
:1018D000211D206800F04AFE012084F8460084F8AB
:1018E0003E0084F83F0084F8400084F8410084F80A
:1018F000420084F8430084F8440084F8450084F8EA
:101900003D00002010BD704790F83D10012901D026
:1019100001207047022180F83D100168CA6842F03A
:101920000102CA6000680E4988420ED0B0F1804FB3
:101930000BD00C49884208D00B49884205D00B498E
:10194000884202D00A49884204D1816801F0070127
:10195000062903D0016841F00101016000207047B1
:10196000000001400004004000080040000C00405E
:1019700000400140704770B50446006801694FF0AF
:101980000005C943890715D4C168C943890711D423
:10199000E91E0161012020772068806980072046C8
:1019A00002D0FFF7E7FF04E000F098F8204600F0CF
:1019B00096F8257720680169C943490717D4C1689B
:1019C000C943490713D46FF0040101610220207755
:1019D0002068806910F4407F204602D0FFF7CAFFDC
:1019E00004E000F07BF8204600F079F825772068C5
:1019F0000169C943090716D4C168C943090712D44C
:101A00006FF008010161042020772068C069800719
:101A1000204602D0FFF7AEFF04E000F05FF820465A
:101A200000F05DF8257720680169C943C90617D41D
:101A3000C168C943C90613D46FF0100101610820C1
:101A400020772068C06910F4407F204602D0FFF75D
:101A500091FF04E000F042F8204600F040F82577BE
:101A600020680169C943C90708D1C168C943C907CA
:101A700004D1891E0161204600F032F82068016916
:101A8000C943090609D4C168C943090605D46FF0E2
:101A9000800101612046FFF707FF20680169C94303
:101AA000490609D4C168C943490605D46FF040010D
:101AB0000161204600F01EF820680169C9438906CB
:101AC0000BD4C168C943890607D46FF020010161B6
:101AD0002046BDE87040FFF7E8BE70BD7047704714
:101AE00000680349884201D1FFF758BB70470000E6
:101AF00000480140704770B5040004D094F83D00E0
:101B0000002510B106E0012070BD84F83C5020464D
:101B100000F022F8242084F83D002068C16821F4F8
:101B20000051C160204600F06DFD2068016921F47C
:101B3000904101612068416921F02A0141612068DA
:101B4000C16841F40051C1602564202084F83D0043
:101B500084F83E00002070BD10B586B00446142104
:101B60006846FEF7E1FB14492068884221D11348FA
:101B70000021026842F010020260006800F01000CC
:101B800005900E481438026842F0010202600068B5
:101B900000F0010005904FF4C06000900220CDE9F4
:101BA0000101032003900720049069460448FEF7D2
:101BB000B5FE06B010BD00000010014044380240E0
:101BC000000002402DE9F843044690F83D001F460E
:101BD00016460D4620284CD1C5B1BEB194F83C0044
:101BE000012846D0012084F83C004FF00008C4F8DA
:101BF0004080212084F83D00FEF786FFA6848146C0
:101C0000E684A068B0F5805F03D004E00120BDE861
:101C1000F883206928B12E465FF0000584F83C80E7
:101C20000EE00026FAE78021204600F071FDA0B901
:101C3000AEB116F8010B21684860E08C401EE084CC
:101C4000E08C4B464FF0000200970028EBD14FF09C
:101C50004001204600F05CFD30B10320D7E735F8A5
:101C6000020BC0F30800E6E7202084F83D000020C6
:101C7000CDE70220CBE7FEE701684A69D24352056F
:101C80000FD46FF480624A61002140F8301F202297
:101C900042738173026942F0040202610173012000
:101CA00070470020704700002DE9F84F0446006897
:101CB00089460B9D01689846174641F48061016092
:101CC0002068016841F48071016000954FF0011BAC
:101CD0000022594620460A9B00F0DEF84FF4007AB5
:101CE00040B120680068C00501D5C4F840A00320B9
:101CF000BDE8F88F216809F0FE0008612B462849ED
:101D000020460A9A00F0FCF8F0BB2068416980691F
:101D100000902A4620460A9900F070F940B1206CE4
:101D200004283AD12068016841F40071016034E070
:101D3000FEB2B8F1010F09D02168380A08612A46BD
:101D400020460A9900F05AF90028E8D12068066177
:101D50002A4620460A9900F051F90028DFD1206870
:101D6000016841F4807101600095002259462046C7
:101D70000A9B00F091F80028B3D1216809F0FF0018
:101D800040F00100086100E007E02B4604492046CE
:101D90000A9A00F0B5F80028AAD00120A8E70000B0
:101DA000020001002DE9F843044600680D46DDE914
:101DB000089701689846164641F4807101604B46C9
:101DC00000224FF001112046009700F065F848B15D
:101DD00020680068C00502D54FF40070206403201D
:101DE000BDE8F883216805F0FE0008613B464A46DD
:101DF0001549204600F084F888B920684169806957
:101E000000903A464946204600F0F8F848B1206C68
:101E1000042804D12068016841F4007101600120A8
:101E2000DEE7F5B2B8F1010F09D02168300A086188
:101E30003A464946204600F0E1F80028E7D12068FC
:101E400005610020CCE700000200010070B51646D5
:101E50000D4604460DE02046FFF70EFF08B10120B5
:101E600070BD681C05D0FEF74FFE801BA84207D846
:101E700035B120684069C0434007ECD4002070BDF4
:101E8000002044F8300F20216173A073216941F0D4
:101E9000200121612073E2E72DE9F0471E469046BC
:101EA0000D460446C1F30747DDF8209008E0701C9A
:101EB00006D0FEF729FEA0EB0900B0420FD876B19C
:101EC0002068012F18D0806925EA00000004000C6A
:101ED00014D000214145EAD00020BDE8F087002061
:101EE00044F8300F20216173A073216941F0200173
:101EF000216120730120F0E74069E5E70121E9E76E
:101F00002DE9F0479A4691460E46044600254FF0CB
:101F10002008C1F3074725E020684069C043400519
:101F200014D42068016841F40071016021686FF4E5
:101F300080604861256384F83D8084F83E50206CC1
:101F400040F00400206484F83C501FE0B9F1FF3FEA
:101F500008D0FEF7D9FDA0EB0A0149450CD8B9F12C
:101F6000000F09D02068012F13D0806926EA0000F5
:101F70000004000C0BD0CFE744F8305F84F80D80EC
:101F8000A573206940F02000206125730120BDE881
:101F9000F0874069EAE72DE9F041002590460E46BA
:101FA0000446202717E04069C043C0060CD454F80B
:101FB000301B6FF01000486144F810596777A5771F
:101FC000206A2062257717E0FEF79EFDA0EB08004F
:101FD000B04208D83EB120684169C9434906E2D4FD
:101FE0000020BDE8F08144F8305F6773A573206975
:101FF00040F02000206125730120F2E770B51646FD
:102000000D4604460DE02046FFF736FE08B10120DC
:1020100070BD681C05D0FEF777FD801BA84207D86D
:1020200035B120684069C0430006ECD4002070BD83
:10203000002044F8300F20216173A073216941F022
:10204000200121612073E2E74FF47A74204601F009
:1020500040F8FBE72DED028B00254FF47A7488B031
:10206000A946204601F035F8DFF834B14FF4005AA4
:10207000002251465846FEF741FD00F0C9F830B144
:1020800048A000F0F1FF204601F023F8FBE700F044
:1020900013F930B149A000F0E7FF204601F019F82C
:1020A000FBE74CA000F0E0FF03AE64274FF00E0802
:1020B000CDE900684F4C01233B22D0214E480297C6
:1020C000FEF7A2FE002867D1BDF80C0040BA2080C0
:1020D000BDF80E0040BA6080BDF8100040BAA08084
:1020E000BDF8140040BAE080BDF8160040BA208167
:1020F000BDF8180040BA60812046B0F9001000EE2B
:10210000101AB8EEC00A9FED3D1AB0F90210B0F9EE
:10211000040000EE901A20EE010A01EE900AF8EE9B
:10212000E00A20EE008AF8EEE11A60EE810A21EE64
:10213000811A00EEA08A01EE018AFEF78DFB0400F1
:1021400009D0012500F0D2FF8146012251465846B0
:10215000FEF7D4FC00E095B100F0C8FF009041F21A
:10216000883000F08CF901460098A0EB090081420C
:1021700005D800252A4651465846FEF7BFFC18EE02
:10218000100AFEF7DCF841EC100B1DA053EC102BED
:10219000CDE9004500F068FF142000F09AFF87E7C2
:1021A000000802404D505536303530206368656375
:1021B0006B206661696C65640D0A00004D505536F0
:1021C00030353020696E6974206661696C65640D14
:1021D0000A000000446F75626C652074617020779E
:1021E000616B652064656D6F2073746172740D0A94
:1021F00000000000BC000020C80000200000803863
:10220000252E33662C25642C25640D0A0000000061
:102210001FB500208DF80C0064230322D02115483F
:10222000FEF73CFD28B114A000F01EFF012004B011
:1022300010BD0121642203A88DE807000B4675221A
:10224000D0210C48FEF7E0FD20B110A000F00CFFFB
:102250000220ECE79DF80C1012A000F005FF9DF89D
:102260000C00682803D0702801D00320DFE700208D
:10227000DDE70000C80000204D50553630353020D5
:102280006E6F742072656164790D0A005265616435
:102290002057484F5F414D5F49206661696C656416
:1022A0000D0A000057484F5F414D5F49203D2030E7
:1022B00078253032580D0A002DE9FF41002401260F
:1022C00003AF8DF80C4064250097CDE901653346D6
:1022D0006B22D0211248FEF793FE18B1012004B002
:1022E000BDE8F0818DF80C400097CDE90165012330
:1022F0001C22D0210A48FEF783FE08B10220EEE737
:102300008DF80C400097CDE9016501231B22D021F7
:102310000348FEF775FE0028E1D00320DFE7000048
:10232000C800002010B5002000F041FF0C4CE06018
:1023300008B9FEF78EFA0B4A00210B4800F08CFF1B
:10234000084A206124320021084800F085FF054A30
:10235000606148320021064800F07EFFA06110BD98
:1023600004000020844D000899240008492000083A
:102370005520000870B586B014216846FDF7D4FFDB
:102380001D480024016841F004010160016801F06A
:1023900004010591016841F080010160016801F0CC
:1023A00080010591016841F001010160016801F0BF
:1023B00001010591016841F00201016000680F4EC2
:1023C00000F002004FF400550590002229463046E7
:1023D000FEF794FB00950125CDE90154694630468E
:1023E0000394FEF79BFACDE9005469460448029530
:1023F000FEF794FA06B070BD303802400008024083
:10240000000002400D4810B50B4901600C494160C5
:1024100000214FF480428160C0E903124161816173
:10242000C1610162FEF776FB002803D0BDE81040D1
:10243000FEF70FBA10BD000000540040C800002095
:10244000A08601000C4810B50A4901604FF4E13143
:102450004160002181600C22C160C0E904128161E9
:10246000C161FFF748FB002803D0BDE81040FEF72C
:10247000F0B910BD001001401C010020FEE710B5AE
:10248000044600F03AFEA4FB00014FF47A720023E8
:10249000FDF700FF10BDFEE74FF47A74204600F010
:1024A00018FEFBE710B54FF0E020006902F070FA6B
:1024B000012803D0BDE8104001F066BE10BD000049
:1024C00030B593B030216846FDF72EFF14210CA8DB
:1024D000FDF72AFF1C480024016841F0805101608B
:1024E000006800F0805011901848016841F44041A4
:1024F00001600068022500F4404011900120039023
:1025000010200490009506950820CDE9074064202E
:10251000CDE9090504200B906846FFF70FF808B1D4
:1025200072B6FEE70F20CDE90C054FF48050CDE9DF
:102530000E4003210CA81094FEF7F4FE002801D0F1
:1025400072B6FEE713B030BD403802400070004064
:102550000248016841F470010160704788ED00E0B5
:102560000148FFF708BA000060010020F0B50268DA
:102570001D4B1E4C9F031E4D1E4E984207D0B84265
:1025800005D0A04203D0A84201D0B04204D122F02D
:10259000700C4A6842EA0C02984210D0B8420ED041
:1025A000A0420CD0A8420AD0B04208D0124CA0429F
:1025B00005D0124CA04202D0114CA04203D122F40B
:1025C0004074CA6822434C6922F0800222430260B0
:1025D0008A68C2620A688262984201D1096901630D
:1025E00001214161F0BD00000000014000040040F5
:1025F00000080040000C0040004001400044014041
:102600000048014070B5044600680169E26821F4A1
:102610004051114301612169A068E2690843616981
:10262000114308432168CA6849F20C639A43024384
:10263000CA6020684169A26921F440711143416177
:1026400031492068884202D03049884202D1FEF7E1
:1026500033FF01E0FEF720FFE26900231921642522
:102660003226B2F5004F626828D0A0FB0101930F1B
:102670009200FDF70FFE0146B0FBF5F06FF0180277
:10268000504301EB800006EB0010B0FBF5F000F0CA
:10269000F002B1FBF5F002EB0012B1FBF5F06FF0C8
:1026A0001803584301EB800006EB0010B0FBF5F077
:1026B00000F00F0021681044886070BDA0FB01018C
:1026C00092185B41FDF7E6FD0146B0FBF5F0020113
:1026D000B1FBF5F06FF01803584301EB800006EBF7
:1026E000C000B0FBF5F000F0F80002EB4002B1FBD7
:1026F000F5F0584301EB800006EBC000B0FBF5F0AD
:1027000000F00700D6E7000000100140001401406F
:102710002DE9F041984617460E460446069D27E0EF
:10272000681C25D02DB1FEF7EFF9A0EB0800A842F8
:102730001ED920680C3050E8001F21F4D07140E809
:102740000012002AF5D12068143050E8001F21F053
:10275000010140E80012002AF5D1202084F83D0054
:1027600084F83E00002084F83C000320BDE8F0819E
:102770002068006836EA000004D00020B842CFD0BC
:102780000020F3E70120F9E7FEE70000014B024AD1
:1027900000F0E6B899300008B80000200907090EDB
:1027A000002804DB00F1E02080F80014704700F0FE
:1027B0000F0000F1E02080F8141D704702E008C807
:1027C000121F08C1002AFAD170477047002001E0AB
:1027D00001C1121F002AFBD1704700002DE9FF5FE5
:1027E00082B00021DDE90430020DDDF840B0034382
:1027F00018D044F61050A2F2FF324243151411983B
:1028000001281FD0A5EB0B00401C5FEA000A4FF027
:1028100000064E4FDFF83891B046504615D5CAF144
:10282000000413E0119801244AA3012801D16FEAA2
:102830000B010298119AC0E90031C0E9024206B0CA
:10284000BDE8F09FCBF10000DFE704460021404ADD
:10285000491842EB0450CDE9001012E0E00707D020
:1028600032463B4640464946FDF758FE804689467B
:1028700032463B4610461946FDF750FE06460F46C7
:102880006410002CEAD1DDE90401DDE90023BAF18E
:10289000000F06DAFDF742FE42464B46FDF73EFECC
:1028A00005E0FDF7ADFE42464B46FDF7A9FE0446A6
:1028B0000E460022284BFDF72BFF03D84FF0FF30C8
:1028C000014607E00022254B20463146FDF77FFDFB
:1028D000FDF705FF102409E0002C0ADB0A22002383
:1028E000FDF7D8FC039B30321A55641E50EA0102F2
:1028F000F2D1641C039AC4F111031444119A012A01
:1029000003D0012208430DD10AE0084304D000207F
:102910004FF0110B119072E7A3EB0B056D1E0DE04C
:102920005B4504DD4FF0000205F1010504E003DA28
:102930004FF00002A5F10105002AECD00298119990
:10294000C0E90231C0E9004579E700000000144009
:102950000000F03F300000000000F0430000E03FC6
:102960002DE9FF4F95B09A46884606460025EEE1D0
:10297000252877D100242746F94A0121039400E055
:10298000044316F8013F203B01FA03F01042F7D14F
:1029900030782A2811D06FF02F033078A0F1300260
:1029A000092A16D8039A44F0020402EB820203EBD0
:1029B00042021044761C0390EFE758F8042B039270
:1029C000002A03DA504244F40054039044F0020415
:1029D000761C30782E2816D116F8010F44F0040426
:1029E0002A280DD06FF02F023078A0F13003092B88
:1029F00009D807EB870302EB4303C718761CF3E7FC
:102A000058F8047B761C30786C280FD006DC4C28F4
:102A100017D068280DD06A2814D104E0742810D08B
:102A20007A280FD10DE044F400140AE044F4801435
:102A300001E044F440147278824202D104F580141B
:102A4000761C761C307866280BD013DC582877D09B
:102A500009DC002875D04528F6D04628F4D0472850
:102A60001AD193E118E0632835D0642879D065281D
:102A700012D18BE1702873D008DC6728F1D0692867
:102A80006FD06E280DD06F2806D1ACE073282CD003
:102A9000752874D0782853D05246179990476D1CEA
:102AA00054E1C4F30250022809D003280DD0D8F80D
:102AB000001004280DD00D6008F1040846E1D8F894
:102AC0000010EA17C1E90052F6E7D8F800100D80AF
:102AD000F2E70D70F0E718F8041B8DF800100020E5
:102AE0008DF80100EB46012003E058F804BB4FF0DD
:102AF000FF3061074FF0000102D40DE009F1010140
:102B00008946B9420FDA8145F8DB1BF80910002924
:102B1000F4D108E009F1010189468142FADB1BF892
:102B200009100029F6D103985346A0EB0907214666
:102B30003846179A00F080FA284400EB090507E0B0
:102B400044E008E10DE01BF8010B5246179990474D
:102B5000B9F10109F7D2534621463846179AF2E0F7
:102B600039E00A21C4F302524FF0000B0091022A0F
:102B700006D058F8040BC117032A09D00AE023E055
:102B800008F1070020F00702F2E80201904605E094
:102B900000B2C117042A01D140B2C117002906DAD8
:102BA0000A460021404261EB02012D2202E022058B
:102BB00004D52B228DF80420012203E0E20701D086
:102BC0002022F7E7914657E00A2100E010214FF05C
:102BD000000B00910BE010214FF0000B44F00404B7
:102BE0000827009103E008204FF0000B0090C4F389
:102BF0000252022A05D058F8040B0021032A08D0FB
:102C000008E008F1070020F00702F2E80201904610
:102C100003E080B2042A00D1C0B24FF000092207BD
:102C20002AD53278702A07D0DDF800C08CF0100C5D
:102C30005CEA0B0C05D00EE040228DF80420012246
:102C400008E050EA010306D030238DF804308DF8F7
:102C5000052002229146009B83F0080353EA0B03F0
:102C60000AD150EA010201D1620705D530228DF860
:102C700004204FF001097F1E3278582A04D039A26F
:102C80000C920CAA02920BE03BA2F9E75B46009A79
:102C9000FDF700FB0C9B9B5C029A521E0292137084
:102CA00050EA0102F2D1029804A9081A00F1200B9F
:102CB000600702D524F4803400E001275F4502DD7F
:102CC000A7EB0B0000E0002000EB0B010090039845
:102CD0004944401A0390E00306D453462146179A0C
:102CE000039800F0A9F90544002706E001A8524620
:102CF000C05D179990476D1C7F1C4F45F6DBE003C4
:102D00000CD553462146179A039800F095F90544CF
:102D100004E030205246179990476D1C0099481ED8
:102D200000900029F5DC08E00298029952460078EC
:102D3000491C0291179990476D1CBBF10001ABF142
:102D4000010BF1DC5BE100F065F90544761C30789D
:102D500000287FF40DAE19B02846BDE8F08F0000C2
:102D60000928010030313233343536373839616261
:102D70006364656600000000303132333435363725
:102D8000383941424344454600000000600700D402
:102D9000062708F1070020F00700F0E8022380462C
:102DA00003F0004C5FEA0C0001D097A009E0200579
:102DB00001D596A005E0E00701D095A001E0AFF2B3
:102DC0004C001390307823F0004365280CD006DCCB
:102DD000452809D046281DD047287FD13BE06628EA
:102DE00018D067287AD136E00021112F01DB11209D
:102DF00000E0781CCDE9000104A90CA8FFF7EEFC67
:102E0000DDE90D010C9A4FF0000B07F1010910925A
:102E100000914EE04FF000400097CDE9011004A969
:102E20000CA8FFF7DBFCDDE90D020C9B0F994FF0BE
:102E3000000B91461093009211B9791C00EB010927
:102E4000B7EB090003D4C0F1FF3B07F10109A9EB7F
:102E50000700019042E0012F00DA01270021112F25
:102E600001DD112000E03846CDE9000104A90CA8DD
:102E7000FFF7B4FCDDE90D010C9A00914FF0000B57
:102E8000B946109221070FD4009A4A4503DA9146B9
:102E900001E0A9F10109B9F1010F05DD109AA9F1CD
:102EA0000101515C3029F4D0B84202DA10F1040F6C
:102EB00003DA0121CDE9011010E0002803DC83448E
:102EC000A9EB000102E0411C494500DD8946A0EB69
:102ED0000B00401C01904FF000400290200705D4E9
:102EE0000198484502DB4FF0FF30019000208DF83B
:102EF0004B0002980DF14B07B0F1004F25D0022096
:102F00000C902B200D90029800280CDA4042029081
:102F10002D200D9007E00A210298FDF723FA3031A9
:102F2000029007F8011D0C99481E0C900029F2DC54
:102F300002980028EFD1791E0D980870307800F0C3
:102F4000200040F0450007F8020D11A8C01BC01D6D
:102F500002901398007800B1012000EB090101985C
:102F600001EBE071029801440398401A401E03905F
:102F7000E00306D453462146179A039800F05CF804
:102F800005441398007818B15246179990476D1C64
:102F9000E00323D553462146179A039800F04CF8D6
:102FA00005441BE0BBF1000F07DB0098584504DD2A
:102FB0001098179910F80B0001E01799302052462D
:102FC000904701980BF1010B401E05F1010501909E
:102FD00004D12E205246179990476D1CB9F100017B
:102FE000A9F10109DEDC05E017F8010B524617993B
:102FF00090476D1C0299481E02900029F4DC53464C
:103000002146179A03989EE62D0000002B00000031
:10301000200000002DE9F041044600251E46174619
:10302000880404D405E039462020B0476D1C641E96
:10303000F9D52846BDE8F0812DE9F0410446002588
:103040001E469046C80301D5302700E0202788049B
:1030500004D505E041463846B0476D1C641EF9D5DD
:103060002846BDE8F08100000FB410B5094CE068B7
:1030700018B14FF0FF3100F071F803A90298FFF783
:1030800085FBE068002801D000F0C5F810BC5DF8B1
:1030900014FB00000400002013B54FF6FF7301225B
:1030A00069460248FEF78EFD00981CBD1C010020F9
:1030B000FEF77CF8FFF704FAFFF75CF9FFF7C2F9B7
:1030C000FFF7A0F900F01CF8FFF72CF900F02AF840
:1030D000FEE710B5EFF3058111B16FF0050403E0D1
:1030E000002408B100F098FE204610BDEFF30580E3
:1030F00008B101F061BC01F059BC4FF47A7070471F
:10310000EFF3058010B16FF00500704704480168C7
:1031100011B14FF0FF30704701210160002070476E
:103120008800002010B5EFF3058010B16FF00500A6
:1031300010BD08480168012902D04FF0FF3010BDD2
:10314000054A002182F8141D0221016000F014FFDD
:10315000002010BD880000200BE000E02DE9F041C8
:103160000D46014621F0010001F001014FF000047D
:10317000EFF305820AB1A41F16E048B100296FF0F1
:1031800001066FF00207294608D001F049FB07E06D
:103190006FF0030408E035B1344605E001F084FA2D
:1031A0000128F8D100E03C462046BDE8F08170B52A
:1031B00005464FF00004EFF3058050BB0DB1686881
:1031C00000E00020C10701D0012600E00026000732
:1031D0001FD46DB1D5E9021021B1502819D31EB109
:1031E000042002E020B114E0012000F0EEFF05E031
:1031F0000EB1042000E0012000F0DCFF040008D044
:103200000DB1296800E0002100F0D0FD0EB144F0BE
:103210000104204670BD70B5014621F0010001F0A7
:1032200001014FF00004EFF305820AB1A41F11E081
:1032300028B16FF0020529B101F07BF907E06FF0CA
:10324000030407E000231A46194601F063F8012839
:1032500000D02C46204670BD2DE9FF414FEA010306
:103260004FF00005EFF30581039549BB40B380277C
:10327000182100244AB3166806B1344696691EB177
:103280003146761E382E02D21679F60703D000207A
:1032900004B0BDE8F081566906B1B708D2F808C09D
:1032A000BCF1000F0DD0D568642D18D312693AB166
:1032B00036B18DE806103A46214601F038FB0390FE
:1032C0000DE0D6685EB912694AB903AACDE90012C9
:1032D000BAB2214601F0FEFA012800D00395039806
:1032E000D6E700002DE9F041134C0F460546E6688D
:1032F0002068001D00F05CFC681C07D137B1216814
:10330000BDE8F0410D48091D00F0A2BC206835441D
:10331000B5424560216805D2206CBDE8F041091D29
:1033200000F07EBCE06B091D00F07AFCA06A8542CB
:1033300000D2A562BDE8F081300000209806002090
:103340002DE9F041054600F08FFC2D4CA068401C93
:10335000A06020682B4F10B1606930B32BE025606E
:10336000A068012827D1002606EB860007EB800025
:1033700000F048FC761C382EF6D3234800F042FCBF
:103380002148143000F03EFC1F48283000F03AFC81
:103390001D483C3000F036FC1B48503000F032FC39
:1033A0001948E0631430206405E02068E96AC06AC7
:1033B000884200D82560606A401C6062A864E86AA0
:1033C0002169884200D9206100EB800007EB800072
:1033D000291D00F03DFC00F067FC606900280CD05E
:1033E0002068E96AC06A884207D208494FF08050D5
:1033F0000860BFF34F8FBFF36F8FBDE8F08100000F
:1034000030000020E80100204806002004ED00E024
:1034100038B500F029FC104C2068C8B90F4800F0FE
:10342000F1FB0E48143000F0EDFB0C48E060143066
:1034300020610A4B0020F03B009003F15002102164
:103440000A2000F0F0FE206010B105A100F0AEFCF3
:10345000BDE8384000F028BC740000209C07002024
:10346000546D72510000000030B4026C0B46002A0B
:103470000BD0C1681144C1608468A14201D30168C6
:10348000C16030BC1846FCF736BF30BC70472DE930
:10349000F041856B174604460026026C82B1C7B125
:1034A000E068FCF728FFE168206C091AE1602268F7
:1034B000914202D2A168081AE060022F16D017E0EC
:1034C0002068A8B9A06801F0E3FA06460020A060D1
:1034D0000EE06068FCF70FFF216C606808446060D4
:1034E000A168884204D32068606001E005B16D1EC8
:1034F0006D1CA5633046BDE8F08110B5044690F818
:10350000610058B101280CD002280FD0502080F360
:103510001188BFF34F8FBFF36F8FFEE7206B00F072
:10352000D7FB2046BDE8104000F0D2BB10BD000024
:1035300010484FF47051420706D0C01D0D4920F0CD
:103540000700411AC1F570510B4A00230144C2E93A
:1035500000030839183A21F0070111604B600B6035
:103560000B1AC0E9001393604FF0004053605061A4
:10357000704700008C0E0020A4000020144E154C53
:10358000A6F29C474FF08058DFF84C9012E000BF45
:1035900000F06AFBF068C568281D00F009FBA06810
:1035A000401EA0606068401E606000F07DFB284601
:1035B000FFF7A3FF60680028EAD138680128F9D92D
:1035C000C9F80080BFF34F8FBFF36F8FF2E70000A1
:1035D000840600203000002004ED00E0002807D021
:1035E0000021816001600B460A46C16000F092BE76
:1035F0007047000070B51D46049C51B1C4F800200E
:10360000C4E90F010121204600F040FE84F84C502F
:1036100070BD2460F4E72DE9F05F8846DDE90B9486
:103620001546834691009A460A9EA522206BFCF718
:1036300074FE6FF00301206B01EB8501084420F05C
:103640000707780707D0502080F31188BFF34F8F0A
:10365000BFF36F8FFEE700256764B8F1000F0ED04F
:103660000020221818F8001082F8341018F8001002
:1036700011B1401C1028F4D384F8435001E084F8C1
:103680003450382E00D33726E662C4E91465201D75
:1036900000F0C3FA04F1180000F0BFFA2461C6F18B
:1036A00038006462A061A565E56584F86050524603
:1036B0005946384600F066FA2060B9F1000F01D093
:1036C000C9F80040BDE8F09F30B5114900E011464F
:1036D0000A688242FBD34B685C18844203D140687D
:1036E00018444860084643681C18944209D1084CA5
:1036F000183C2468A24209D052681A4442600A6801
:1037000012680260814200D0086030BD0460F9E7B1
:10371000A400002070B5002441600B4D006191426F
:1037200006D8D11A8269914206D2011D286907E0A4
:103730009A4203D2994201D3012403E0011DE868B3
:1037400000F06EFA204670BD7400002010B50446EB
:1037500000F08AFAA06B28B15FF0000400F0A4FA30
:10376000204610BD0124F9E730B589B03C4D6EE02C
:103770000498002806DADDE90601059A90470498C6
:10378000002864DB069C606910B1201D00F010FA6F
:1037900003A800F0D7F8024604980A2857D2DFE8B9
:1037A00000F00505052D334A05052D3394F8280052
:1037B00040F0010084F828000599A069059B0144A8
:1037C0002046FFF7A7FF68B3216A2046884794F890
:1037D000280040073BD5002000900598A1690023F0
:1037E00042181946204601F099FAD8B9502080F3C2
:1037F0001188BFF34F8FBFF36F8FFEE714F8280FC8
:1038000020F00100207022E094F8280040F0010030
:1038100084F828000598A06128B181181346204635
:10382000FFF778FF13E0502080F31188BFF34F8F2C
:10383000BFF36F8FFEE794F82800810703D420467A
:1038400000F046FA03E020F0010084F8280000228E
:1038500004A9286800F08CFE002889D109B030BD89
:10386000740000202DE9FC410F46054600F0CAFB1C
:1038700001A800F067F80446019818B101F0BCF9FE
:10388000BDE8FC81254EAFB130690068D0B3002798
:10389000291B3A46306800F09DFA01F0ADF9002886
:1038A000EED11F494FF080500860BFF34F8FBFF338
:1038B0006F8FE5E7A542EBD801F09EF9F068274647
:1038C000C068C468201D00F073F994F8280041070F
:1038D00019D5A0692B4641193A462046FFF71AFF31
:1038E000A8B100200346014600902A46204601F078
:1038F00015FA60B9502080F31188BFF34F8FBFF3E2
:103900006F8FFEE707E020F0010084F82800216AAD
:1039100020468847B4E70127BAE70000740000207A
:1039200004ED00E00648C16B096829B1C16BC968A4
:10393000C9684968816270474FF0FF31FAE70000BB
:103940003000002070B5054601F030F8064E044600
:10395000B068844203D200F009F8012000E00020A2
:1039600028602046B46070BD74000020F8B5194D81
:1039700020E0C068C4680668201D00F019F9216ABB
:103980002046884794F82800400713D5A0693044A2
:10399000B04206D924616060211DE86800F040F95A
:1039A00008E000200346014600903246204601F020
:1039B000B5F938B1E86801680029DAD12969C5E9A3
:1039C0000310F8BD502080F31188BFF34F8FBFF371
:1039D0006F8FFEE77400002008484068401C4FF0DD
:1039E000500080F3118804D0BFF34F8FBFF36F8F67
:1039F000FEE7BFF34F8FBFF36F8FFEE7AC000020F1
:103A0000074CE068016841B1C0680021D0F80000AF
:103A1000FFF728FFFFF7A8FEF3E701210020F7E7F3
:103A2000740000202DE9F041044600F01DF994F9DE
:103A3000455004F1240609E0606A48B1304601F0BF
:103A4000A3F808B100F016FA6D1E6DB2002DF3DC7C
:103A50004FF0FF3684F8456000F026F900F004F9D5
:103A600094F9445004F1100709E0206948B1384640
:103A700001F08AF808B100F0FDF96D1E6DB2002D5D
:103A8000F3DC84F84460BDE8F04100F00DB90000BB
:103A90002DE9F0410546002700F0B4FA324E3068B7
:103AA00008B9FFF745FD706905424ED1C5B3083529
:103AB00068070ED005F00700C0F10800054468074C
:103AC00007D0502080F31188BFF34F8FBFF36F8F63
:103AD000FEE72DB37068854237D823481830014679
:103AE0000C6801E020460C466168A94202D22168B8
:103AF0000029F7D131688C4227D00768216801601E
:103B000060680837411B10290FD96019420708D097
:103B1000502080F31188BFF34F8FBFF36F8FFEE704
:103B200013E041606560FFF7CFFD61687068401A7F
:103B30007060B268904200D2B060706901430020AA
:103B4000C4E90001F068401CF06001F055F8780706
:103B500007D0502080F31188BFF34F8FBFF36F8FD2
:103B6000FEE73846BDE8F0818C0000200449086873
:103B700018B10868426D521C426508687047000021
:103B80003000002010B5031F4FF080741C601B1F15
:103B900021F001011960191F044B0B6014390A60F0
:103BA000091F6FF0020244380A6010BDD9390008BD
:103BB000D0E9013201699A60D0E901235A604A686C
:103BC000824201D182684A60002202610868401E78
:103BD0000860086870470000034B036003F164004D
:103BE0000860802010607047C4070020044B036009
:103BF00003F1640008604FF48070106070470000AB
:103C0000280A002000F108014FF0FF32C0E901123C
:103C1000C1600161002101607047002101617047AE
:103C200030B50B685A1C02D000F1080202E00269AC
:103C300004E02246546825689D42FAD953684B60D7
:103C400099608A60516008610168491C016030BD5B
:103C500042684A6093688B6093685960916008611C
:103C60000168491C01607047502080F31188BFF340
:103C70004F8FBFF36F8F0A494868401C4860012886
:103C80000CD10848006810F0FF0F07D0502080F3D7
:103C90001188BFF34F8FBFF36F8FFEE770470000AF
:103CA000AC00002004ED00E00849486828B1401E3F
:103CB000486001D180F311887047502080F311884B
:103CC000BFF34F8FBFF36F8FFEE70000AC00002003
:103CD00070B500282AD0164DA0F108046068696903
:103CE000084207D1502080F31188BFF34F8FBFF3F4
:103CF0006F8FFEE722683AB1502080F31188BFF33E
:103D00004F8FBFF36F8FFEE78843606000F07AF952
:103D100060686968084468602046FFF7D5FC286938
:103D2000401C2861BDE8704000F066BF70BD000017
:103D30008C0000204FF0E0200021016181610549E5
:103D40004FF47A720968B1FBF2F1491E4161072113
:103D5000016170472C00002010B5FCF785FA11496D
:103D600010280ED300F1E02090F8F0030A7890427A
:103D700007D2502080F31188BFF34F8FBFF36F8FAE
:103D8000FEE709480068896800F4E060884207D9C6
:103D9000502080F31188BFF34F8FBFF36F8FFEE782
:103DA00010BD0000AC0000200CED00E010B5084B89
:103DB000002200BF53F832401CB1521C082AF9D32C
:103DC00010BD43F8321003EBC201486010BD000083
:103DD000A801002070B515460E460446FFF744FFC3
:103DE00094F944100020491C01D184F8440094F94E
:103DF0004510491C01D184F84500FFF755FFA06B21
:103E000028B92A46314604F1240000F051F8204632
:103E1000BDE87040FFF706BE10B5020014D00F4891
:103E2000006B38B1502080F31188BFF34F8FBFF380
:103E30006F8FFEE700F0E6F800211046FFF752FA18
:103E400000F0DAFE002807D105494FF080500860E5
:103E5000BFF34F8FBFF36F8F10BD00003000002005
:103E600004ED00E002490A6A0260C96841607047D7
:103E70003000002001490120C86170473000002057
:103E800010B50C4650B1094909681831FFF7C8FE52
:103E90002046BDE810400121FFF724BA502080F3EE
:103EA0001188BFF34F8FBFF36F8FFEE73000002004
:103EB00070B514460D4668B10A4909681831FFF714
:103EC000C7FE0CB14FF0FF3521462846BDE87040D3
:103ED000FFF708BA502080F31188BFF34F8FBFF36C
:103EE0006F8FFEE73000002070B504003ED0626D99
:103EF000A2B1206D884200D30146E06A884235D0E5
:103F0000012A33D11A4D2A6894420FD1502080F3F0
:103F10001188BFF34F8FBFF36F8FFEE7502080F300
:103F20001188BFF34F8FBFF36F8FFEE7E162A26985
:103F3000002A02DBC1F13801A1610E4E00EB8000C6
:103F4000616906EB8000814210D1201DFFF730FE31
:103F5000E06A2969884200D9286100EB800006EBFD
:103F60008000211DBDE87040FFF772BE70BD0000EB
:103F700030000020E801002030B587B00024039411
:103F800005AA04A903A80494FFF726FEDDE90301AE
:103F90000094CDE90110002316A11848059A00F0FD
:103FA000C6FC174D0028E86221D000F087FE0128EA
:103FB00009D0401C1BD1502080F31188BFF34F8FD4
:103FC000BFF36F8FFEE7502080F31188BFF34F8F50
:103FD000BFF36F8F4FF0FF30A86201206861EC6083
:103FE000FCF730FC07B0BDE8304000F053B807B034
:103FF00030BD000049444C45000000007D350008FC
:10400000300000200248016B491C0163704700002A
:10401000300000201C4810B5016B11B10121C161B5
:1040200010BD0021C161194909688163436B994240
:1040300004D90268CB1A946D2344936541630169E6
:10404000134A01E0B9B1491E01EB810352F8233054
:10405000002BF7D001EB810302EB830202F108048D
:1040600053685B685360A34201D15B685360DA68B0
:104070000260016110BD502080F31188BFF34F8FA3
:10408000BFF36F8FFEE7000030000020000000202B
:10409000E80100201CB537480168374A914207D132
:1040A000502080F31188BFF34F8FBFF36F8FFEE76F
:1040B00000683149491E884207D1502080F3118899
:1040C000BFF34F8FBFF36F8FFEE72C490878019045
:1040D000FF20087008788DF800009DF800009DF81A
:1040E000002000F0F000904207D0502080F31188AB
:1040F000BFF34F8FBFF36F8FFEE79DF80000204C9A
:1041000000F0500020700720A06005E09DF800201E
:1041100052008DF80020401E9DF800201206F5D4B4
:10412000A060032807D0502080F31188BFF34F8F81
:10413000BFF36F8FFEE74FF44070A06001980870E6
:104140000C482030016841F470010160016841F0C1
:1041500070410160FFF7EEFD00206060FCF74CF855
:104160000848016841F040410160FCF731F8002047
:104170001CBD000000ED00E071C20F4100E400E052
:10418000AC00002034EF00E010B5502080F311881F
:10419000BFF34F8FBFF36F8F00F016FC18B10449C7
:1041A0004FF080500860002080F3118810BD00009F
:1041B00004ED00E010B502460021012000F012F8E5
:1041C0000446FFF70BFA204610BD38B50B46002217
:1041D00000901146012000F026F80446FFF7FEF992
:1041E000204638BDF8B517460E46050013D005FB2E
:1041F00006F05030FFF74CFC04000AD0002084F891
:10420000460004F150023B46314628460094FFF731
:10421000F1F92046F8BD502080F31188BFF34F8F8D
:10422000BFF36F8FFEE738B5049D18B153B1CAB123
:1042300081B120E0502080F31188BFF34F8FBFF38E
:104240006F8FFEE7502080F31188BFF34F8FBFF3CD
:104250006F8FFEE7502080F31188BFF34F8FBFF3BD
:104260006F8FFEE739B1502080F31188BFF34F8F75
:10427000BFF36F8FFEE750241C46012384F84630BD
:104280002B460094FFF7B6F9204638BD70B50D46B1
:10429000040025D0FFF7E8FCD4E90F20216802FBD9
:1042A0000011A1600021A163216861600A46D4E980
:1042B0000F01401E00FB0121E16021464FF0FF305D
:1042C00001F8440F487004F110008DB1FFF79AFC1B
:1042D00004F12400FFF796FCFFF7E6FC012070BD17
:1042E000502080F31188BFF34F8FBFF36F8FFEE72D
:1042F00021690029F0D000F047FC0028ECD00449E7
:104300004FF080500860BFF34F8FBFF36F8FE3E72C
:1043100004ED00E02DE9FF4782B01D468A464FF0CC
:104320000008040003D0BAF1000F08D011E05020BB
:1043300080F31188BFF34F8FBFF36F8FFEE7206CC0
:1043400038B1502080F31188BFF34F8FBFF36F8FC8
:10435000FEE7022D0AD1E06B012807D0502080F340
:104360001188BFF34F8FBFF36F8FFEE700F010FB94
:104370003F4F4FF000094FF0805648B9049838B1CC
:10438000502080F31188BFF34F8FBFF36F8FFEE78C
:10439000FFF76AFCA06BE16B884207D3022D05D0C2
:1043A0000498D0B1B8F1000F1AD01EE02A46514649
:1043B0002046FFF76CF8616A19B104F1240000F09F
:1043C000E3FB20B13E60BFF34F8FBFF36F8FFFF76A
:1043D0006BFC012006B0BDE8F087FFF765FC22E02A
:1043E0006846FFF73FFD4FF00108FFF75DFCFFF760
:1043F00009FEFFF739FC94F94400401C01D184F810
:10440000449094F94500401C01D184F84590FFF791
:104410004BFC04A9684600F023FA30B12046FFF7B0
:1044200001FB00F0E9FB0020D4E7FFF71DFCA06BC7
:10443000E16B884213D1FFF737FC04F110000499B7
:10444000FFF71EFD2046FFF7EDFA00F0D5FB002830
:104450009ED13E60BFF34F8FBFF36F8F98E7FFF79A
:1044600023FC2046FFF7DEFA00F0C6FB90E70000D1
:1044700004ED00E02DE9F0471F4690468946040010
:1044800003D0B9F1000F08D011E0502080F311885B
:10449000BFF34F8FBFF36F8FFEE7206C38B1502012
:1044A00080F31188BFF34F8FBFF36F8FFEE7022FAA
:1044B0000AD1E06B012807D0502080F31188BFF3A8
:1044C0004F8FBFF36F8FFEE7FFF746FC5020EFF3EF
:1044D000118680F31188BFF34F8FBFF36F8FA06BEE
:1044E000E16B884206D3022F04D0002086F31188A6
:1044F000BDE8F08794F94550A06B3A4649462046FE
:10450000FEF7C5FF681C04D06D1C84F845500120DF
:10451000ECE7606A0028FAD004F1240000F034FBD4
:104520000028F4D0B8F1000FF1D00121C8F8001034
:10453000EDE710B5040009D000F024FAA168884224
:1045400014D1E068401EE06008D00DE0502080F3F8
:104550001188BFF34F8FBFF36F8FFEE700231A461A
:1045600019462046FFF7D6FE012010BD002010BDE1
:104570002DE9F747002683B08A46040003D0BAF13C
:10458000000F08D011E0502080F31188BFF34F8F47
:10459000BFF36F8FFEE7206C38B1502080F3118895
:1045A000BFF34F8FBFF36F8FFEE700F0F1F9DFF835
:1045B000F4804FF000094FF0805748B9059838B1A2
:1045C000502080F31188BFF34F8FBFF36F8FFEE74A
:1045D000FFF74AFBA56BC5B151462046FEF744FFE5
:1045E0006D1EA563206950B104F1100000F0CCFAF3
:1045F00028B1C8F80070BFF34F8FBFF36F8FFFF77C
:1046000053FB012006B0BDE8F087059808B11EB144
:1046100006E0FFF749FB27E06846FFF723FC012689
:10462000FFF742FBFFF7EEFCFFF71EFB94F9440097
:10463000401C01D184F8449094F94500401C01D1FC
:1046400084F84590FFF730FB05A9684600F008F9AB
:10465000002820460AD0FFF7E5F900F0CDFA204601
:10466000FFF774F80028B3D00020CBE7FFF76EF80F
:1046700090B104F124000599FFF702FC2046FFF7F2
:10468000D1F900F0B9FA0028A2D1C8F80070BFF340
:104690004F8FBFF36F8F9BE72046FFF7C3F900F002
:1046A000ABFA95E704ED00E02DE9F343002683B073
:1046B0000400354609D0206C78B1502080F3118871
:1046C000BFF34F8FBFF36F8FFEE7502080F3118849
:1046D000BFF34F8FBFF36F8FFEE700F059F9DFF89C
:1046E0003C814FF000094FF0805748B9049838B129
:1046F000502080F31188BFF34F8FBFF36F8FFEE719
:10470000FFF7B2FAA06BC8B1401EA063206810B9D1
:10471000FFF72CFAA060206950B104F1100000F0FE
:1047200033FA28B1C8F80070BFF34F8FBFF36F8F13
:10473000FFF7BAFA012005B0BDE8F083049808B18C
:1047400066B10FE03DB1502080F31188BFF34F8F69
:10475000BFF36F8FFEE7FFF7A7FA5DE06846FFF74C
:1047600081FB0126FFF7A0FAFFF74CFCFFF77CFA6C
:1047700094F94400401C01D184F8449094F9450018
:10478000401C01D184F84590FFF78EFA04A96846D1
:1047900000F066F80028204612D0FFF743F900F039
:1047A0002BFA2046FEF7D2FF0028A9D09DB3FFF7D1
:1047B0005BFA606A50B3206B0068C0F1380126E0F4
:1047C000FEF7C4FFE0B1206838B9FFF74DFAA068E2
:1047D00000F09EF90546FFF767FA04F124000499FA
:1047E000FFF74EFB2046FFF71DF900F005FA002801
:1047F00086D1C8F80070BFF34F8FBFF36F8F7FE78C
:104800002046FFF70FF900F0F7F979E70021A068DB
:10481000FFF76AFB9FE7FFE700208CE704ED00E06D
:1048200070B50D46040009D000F0ACF8A1688842CC
:104830000CD1E068401CE060012070BD502080F386
:104840001188BFF34F8FBFF36F8FFEE729462046D5
:10485000FFF72AFF0028F0D0E168491CE16070BD35
:104860002DE9F0410C46050011D0C4B1FFF7FCF969
:10487000174BDA686E682068911B471C17D02F68A9
:104880001B6A9F4219D0964217D8012410E050208D
:1048900080F31188BFF34F8FBFF36F8FFEE7502077
:1048A00080F31188BFF34F8FBFF36F8FFEE70024B3
:1048B000FFF7FAF92046BDE8F081884205D9401A91
:1048C00020602846FFF7CEFAF1E700202060DCE701
:1048D000300000202DE9FF5F8346DDE90E87994611
:1048E00016468A469000FFF7D3F805001CD06420D6
:1048F000FFF7CEF8040014D00020256384F861008F
:10490000CDE90240CDE900874B4632465146584634
:10491000FEF781FE2046FEF713FD012004B0BDE83E
:10492000F09F2846FFF7D4F94FF0FF30F6E7F0B5D7
:1049300085B0DDE90B640A9DA6B1DCB16427009760
:104940002663022684F86160002604AFCDE90246A2
:10495000CDE90057FEF75FFE2046FEF7F1FC049814
:1049600005B0F0BD502080F31188BFF34F8FBFF327
:104970006F8FFEE7502080F31188BFF34F8FBFF396
:104980006F8FFEE70148006870470000300000208C
:104990000548416919B1006B18B10020704701202A
:1049A0007047022070470000300000200148C068B6
:1049B000704700003000002010B5FFF7CDF9014826
:1049C000C06810BD300000202DE9F0412E4C0027BA
:1049D000206B28B1A069401CA0613846BDE8F08179
:1049E000E668761CE66013D1E06B006838B15020B1
:1049F00080F31188BFF34F8FBFF36F8FFEE7E06B3B
:104A0000216CE1632064206A401C2062FEF78AFF6B
:104A1000A06ADFF87880864209D3E06B0068A0B115
:104A2000E06BC068C5686868864211D2A0622068E1
:104A3000C06A00EB800158F82100012800D9012745
:104A4000E0690028C9D00127C7E74FF0FF30EDE744
:104A5000281DFFF7ADF8A86A18B105F11800FFF797
:104A6000A7F8E86A2169884200D9206100EB80013B
:104A700008EB8100291DFFF7EBF8E86A2168C96A95
:104A80008842CAD30127C8E730000020E80100208F
:104A900070B504004FF0000133D01B4D28688442EC
:104AA00007D0502080F31188BFF34F8FBFF36F8F73
:104AB000FEE7606D38B1401E6065236DE26A9A4280
:104AC0001FD040B11DE0502080F31188BFF34F8FFD
:104AD000BFF36F8FFEE7201DFFF76AF8206DE062DD
:104AE000C0F13800A061E06A2969884200D92861D4
:104AF000064900EB800001EB8000211DFFF7A8F8BC
:104B00000121084670BD000030000020E8010020AF
:104B100070B504004FF000002BD0194DE16A2A68EF
:104B2000D26A914226D2A069002804DB2868C06AB4
:104B3000C0F13800A061134E01EB8101606906EB02
:104B40008101884211D1201DFFF732F82868C06A20
:104B5000E0622969884200D9286100EB800006EBF9
:104B60008000211DFFF774F802E02868C06AE06247
:104B7000012070BD216D2A68D26A9142F8D370BDC0
:104B800030000020E801002070B5C068C46854B14E
:104B900004F118000646FFF70BF8144D286B50B1CE
:104BA0003146134815E0502080F31188BFF34F8F32
:104BB000BFF36F8FFEE7201DFEF7FAFFE06A296959
:104BC000884200D928610B4900EB800001EB80008E
:104BD000211DFFF73DF8E06A2968C96A884202D9B9
:104BE0000120E86170BD002070BD00003000002091
:104BF00070060020E80100202DE9F0472C4D00242C
:104C00002746286B38B1FFF72FF8286B401E286322
:104C1000286B40B146E0502080F31188BFF34F8FDE
:104C2000BFF36F8FFEE7A968224E0120D1B3A6F52E
:104C3000916980463068E0B1F068C46804F11800FA
:104C4000FEF7B6FF201DFEF7B3FFE06A2969884230
:104C500000D9286100EB800109EB8100211DFEF7DE
:104C6000F7FFE06A2968C96A8842E3D3C5F81C8067
:104C7000E0E70CB1FEF756FEAC694CB14FEA08060E
:104C8000FFF7A2FE00B1EE61641EF9D10020A86119
:104C9000E86938B10849012738070860BFF34F8F2A
:104CA000BFF36F8FFFF700F83846BDE8F0870000CC
:104CB000300000207006002004ED00E010B586B042
:104CC000FEF7A6FB114C2068B8B1002003900490B9
:104CD00005AA04A903A8FEF789FFDDE90321022044
:104CE0008DE8070000230AA10B48059AFFF71FFE75
:104CF000606010B106B0012010BD502080F3118813
:104D0000BFF34F8FBFF36F8FFEE7000074000020EA
:104D1000546D722053766300013A00082DE9FF417B
:104D20001E46134602000A9D4FF0000016D0144C98
:104D30002768002F0FD0CDE900130292062917DA59
:104D4000FFF726FE02284FF000030FD0002269462D
:104D50002068FFF7DFFA04B0BDE8F081502080F34F
:104D60001188BFF34F8FBFF36F8FFEE72A46EEE740
:104D70000023324669463846FFF77CFBEBE700002C
:104D800074000020204E0008000000000000000019
:104D90000000000000000000000400000800000007
:104DA0000000000000000000084E000800000000A5
:104DB00000000000000000000000000000040000EF
:104DC000090000000000000000000000144E000870
:104DD00000000000000000000000000000000000D3
:104DE00000080000090000000000000000000000B2
:104DF000000000000000000001020304060708098B
:104E000000000000010203044C45445F5461736BD1
:104E1000000000004C6F675F5461736B000000007E
:104E200064656661756C745461736B004C4E000868
:104E300000000020BC000000BC270008084F00084C
:104E4000BC000020D44D0000CC270008000000006A
:104E50000001000000000000000000000000000051
:104E60000000000000000000000000000100000041
:104E700010000000000000000024F400000000000A
:104E80000000000000000000000000000000000022
:104E90000000000000000000000000000000000012
:104EA0000000000000000000000000000000000002
:104EB00000000000000000000000000000000000F2
:104EC00000000000000000000000000000000000E2
:104ED00000000000000000000000000000000000D2
:104EE00000000000000000000000000000000000C2
:104EF000000000000000000000000000AAAAAAAA0A
:084F00000000000000000000A9
:040000050800019955
:00000001FF
